{
  "contractName": "Donations",
  "abi": [
    {
      "anonymous": false,
      "inputs": [
        {
          "indexed": false,
          "internalType": "uint256",
          "name": "id",
          "type": "uint256"
        }
      ],
      "name": "Created",
      "type": "event"
    },
    {
      "inputs": [
        {
          "internalType": "uint256",
          "name": "",
          "type": "uint256"
        }
      ],
      "name": "donations",
      "outputs": [
        {
          "internalType": "address",
          "name": "owner",
          "type": "address"
        },
        {
          "internalType": "string",
          "name": "title",
          "type": "string"
        },
        {
          "internalType": "string",
          "name": "story",
          "type": "string"
        },
        {
          "internalType": "uint256",
          "name": "goal",
          "type": "uint256"
        },
        {
          "internalType": "uint256",
          "name": "deadline",
          "type": "uint256"
        },
        {
          "internalType": "uint256",
          "name": "collectedAmount",
          "type": "uint256"
        },
        {
          "internalType": "string",
          "name": "image",
          "type": "string"
        }
      ],
      "stateMutability": "view",
      "type": "function",
      "constant": true
    },
    {
      "inputs": [],
      "name": "getNumberOfDonations",
      "outputs": [
        {
          "internalType": "uint256",
          "name": "",
          "type": "uint256"
        }
      ],
      "stateMutability": "view",
      "type": "function",
      "constant": true
    },
    {
      "inputs": [
        {
          "internalType": "address",
          "name": "_owner",
          "type": "address"
        },
        {
          "internalType": "string",
          "name": "_title",
          "type": "string"
        },
        {
          "internalType": "string",
          "name": "_story",
          "type": "string"
        },
        {
          "internalType": "uint256",
          "name": "_goal",
          "type": "uint256"
        },
        {
          "internalType": "uint256",
          "name": "_deadline",
          "type": "uint256"
        },
        {
          "internalType": "string",
          "name": "_image",
          "type": "string"
        }
      ],
      "name": "createDonation",
      "outputs": [
        {
          "internalType": "uint256",
          "name": "",
          "type": "uint256"
        }
      ],
      "stateMutability": "nonpayable",
      "type": "function"
    },
    {
      "inputs": [
        {
          "internalType": "uint256",
          "name": "_id",
          "type": "uint256"
        }
      ],
      "name": "donateToDonation",
      "outputs": [],
      "stateMutability": "payable",
      "type": "function",
      "payable": true
    },
    {
      "inputs": [
        {
          "internalType": "uint256",
          "name": "_id",
          "type": "uint256"
        }
      ],
      "name": "getDonators",
      "outputs": [
        {
          "internalType": "address[]",
          "name": "",
          "type": "address[]"
        },
        {
          "internalType": "uint256[]",
          "name": "",
          "type": "uint256[]"
        }
      ],
      "stateMutability": "view",
      "type": "function",
      "constant": true
    },
    {
      "inputs": [],
      "name": "getAllDonations",
      "outputs": [
        {
          "components": [
            {
              "internalType": "address",
              "name": "owner",
              "type": "address"
            },
            {
              "internalType": "string",
              "name": "title",
              "type": "string"
            },
            {
              "internalType": "string",
              "name": "story",
              "type": "string"
            },
            {
              "internalType": "uint256",
              "name": "goal",
              "type": "uint256"
            },
            {
              "internalType": "uint256",
              "name": "deadline",
              "type": "uint256"
            },
            {
              "internalType": "uint256",
              "name": "collectedAmount",
              "type": "uint256"
            },
            {
              "internalType": "string",
              "name": "image",
              "type": "string"
            },
            {
              "internalType": "address[]",
              "name": "donators",
              "type": "address[]"
            },
            {
              "internalType": "uint256[]",
              "name": "donations",
              "type": "uint256[]"
            }
          ],
          "internalType": "struct Donations.Donation[]",
          "name": "",
          "type": "tuple[]"
        }
      ],
      "stateMutability": "view",
      "type": "function",
      "constant": true
    }
  ],
  "bytecode": "0x60806040526000805534801561001457600080fd5b50610f95806100246000396000f3fe6080604052600436106100555760003560e01c80630fa91fa91461005a57806338a59a071461009157806390387637146100b35780639d0f97aa146100d2578063b99a60bc146100f2578063f8626af814610107575b600080fd5b34801561006657600080fd5b5061007a61007536600461098e565b61013a565b6040516100889291906109e2565b60405180910390f35b34801561009d57600080fd5b506100a661020b565b6040516100889190610ac1565b3480156100bf57600080fd5b506000545b604051908152602001610088565b3480156100de57600080fd5b506100c46100ed366004610c71565b6105b1565b61010561010036600461098e565b6106ef565b005b34801561011357600080fd5b5061012761012236600461098e565b6107b0565b6040516100889796959493929190610d2a565b6000818152600160209081526040918290206007810180548451818502810185019095528085526060948594929360080192909184918301828280156101a957602002820191906000526020600020905b81546001600160a01b0316815260019091019060200180831161018b575b50505050509150808054806020026020016040519081016040528092919081815260200182805480156101fb57602002820191906000526020600020905b8154815260200190600101908083116101e7575b5050505050905091509150915091565b60606000805467ffffffffffffffff81111561022957610229610bce565b6040519080825280602002602001820160405280156102b257816020015b61029f60405180610120016040528060006001600160a01b0316815260200160608152602001606081526020016000815260200160008152602001600081526020016060815260200160608152602001606081525090565b8152602001906001900390816102475790505b50905060005b6000548110156105ab576000818152600160208181526040928390208351610120810190945280546001600160a01b031684529182018054918401916102fd90610d94565b80601f016020809104026020016040519081016040528092919081815260200182805461032990610d94565b80156103765780601f1061034b57610100808354040283529160200191610376565b820191906000526020600020905b81548152906001019060200180831161035957829003601f168201915b5050505050815260200160028201805461038f90610d94565b80601f01602080910402602001604051908101604052809291908181526020018280546103bb90610d94565b80156104085780601f106103dd57610100808354040283529160200191610408565b820191906000526020600020905b8154815290600101906020018083116103eb57829003601f168201915b5050505050815260200160038201548152602001600482015481526020016005820154815260200160068201805461043f90610d94565b80601f016020809104026020016040519081016040528092919081815260200182805461046b90610d94565b80156104b85780601f1061048d576101008083540402835291602001916104b8565b820191906000526020600020905b81548152906001019060200180831161049b57829003601f168201915b505050505081526020016007820180548060200260200160405190810160405280929190818152602001828054801561051a57602002820191906000526020600020905b81546001600160a01b031681526001909101906020018083116104fc575b505050505081526020016008820180548060200260200160405190810160405280929190818152602001828054801561057257602002820191906000526020600020905b81548152602001906001019080831161055e575b50505050508152505082828151811061058d5761058d610dc8565b602002602001018190525080806105a390610df4565b9150506102b8565b50919050565b6000805481526001602052604081206105cc426103e8610e0d565b84101561062b5760405162461bcd60e51b815260206004820152602360248201527f54686520646561646c696e65206d75737420626520696e20746865206675747560448201526272652160e81b606482015260840160405180910390fd5b80546001600160a01b0319166001600160a01b038916178155600181016106528882610e79565b50600281016106618782610e79565b5060038101859055600481018490556006810161067e8482610e79565b5060008054908061068e83610df4565b91905055507f06acbfb32bcf8383f3b0a768b70ac9ec234ea0f2d3b9c77fa6a2de69b919aad160016000546106c39190610f39565b60405190815260200160405180910390a160016000546106e39190610f39565b98975050505050505050565b600081815260016020818152604080842060078101805480860182559086528386200180546001600160a01b0319163317905560088101805494850181558552918420349301839055815490519193916001600160a01b039091169083908381818185875af1925050503d8060008114610785576040519150601f19603f3d011682016040523d82523d6000602084013e61078a565b606091505b5050905080156107aa578183600501546107a49190610f4c565b60058401555b50505050565b6001602081905260009182526040909120805491810180546001600160a01b03909316926107dd90610d94565b80601f016020809104026020016040519081016040528092919081815260200182805461080990610d94565b80156108565780601f1061082b57610100808354040283529160200191610856565b820191906000526020600020905b81548152906001019060200180831161083957829003601f168201915b50505050509080600201805461086b90610d94565b80601f016020809104026020016040519081016040528092919081815260200182805461089790610d94565b80156108e45780601f106108b9576101008083540402835291602001916108e4565b820191906000526020600020905b8154815290600101906020018083116108c757829003601f168201915b50505050509080600301549080600401549080600501549080600601805461090b90610d94565b80601f016020809104026020016040519081016040528092919081815260200182805461093790610d94565b80156109845780601f1061095957610100808354040283529160200191610984565b820191906000526020600020905b81548152906001019060200180831161096757829003601f168201915b5050505050905087565b6000602082840312156109a057600080fd5b5035919050565b600081518084526020808501945080840160005b838110156109d7578151875295820195908201906001016109bb565b509495945050505050565b604080825283519082018190526000906020906060840190828701845b82811015610a245781516001600160a01b0316845292840192908401906001016109ff565b50505083810382850152610a3881866109a7565b9695505050505050565b6000815180845260005b81811015610a6857602081850181015186830182015201610a4c565b506000602082860101526020601f19601f83011685010191505092915050565b600081518084526020808501945080840160005b838110156109d75781516001600160a01b031687529582019590820190600101610a9c565b60006020808301818452808551808352604092508286019150828160051b87010184880160005b83811015610bc057888303603f19018552815180516001600160a01b0316845261012088820151818a870152610b2082870182610a42565b9150508782015185820389870152610b388282610a42565b606084810151908801526080808501519088015260a0808501519088015260c080850151888303828a01529193509150610b728382610a42565b9250505060e08083015186830382880152610b8d8382610a88565b925050506101008083015192508582038187015250610bac81836109a7565b968901969450505090860190600101610ae8565b509098975050505050505050565b634e487b7160e01b600052604160045260246000fd5b600082601f830112610bf557600080fd5b813567ffffffffffffffff80821115610c1057610c10610bce565b604051601f8301601f19908116603f01168101908282118183101715610c3857610c38610bce565b81604052838152866020858801011115610c5157600080fd5b836020870160208301376000602085830101528094505050505092915050565b60008060008060008060c08789031215610c8a57600080fd5b86356001600160a01b0381168114610ca157600080fd5b9550602087013567ffffffffffffffff80821115610cbe57600080fd5b610cca8a838b01610be4565b96506040890135915080821115610ce057600080fd5b610cec8a838b01610be4565b9550606089013594506080890135935060a0890135915080821115610d1057600080fd5b50610d1d89828a01610be4565b9150509295509295509295565b6001600160a01b038816815260e060208201819052600090610d4e90830189610a42565b8281036040840152610d608189610a42565b90508660608401528560808401528460a084015282810360c0840152610d868185610a42565b9a9950505050505050505050565b600181811c90821680610da857607f821691505b6020821081036105ab57634e487b7160e01b600052602260045260246000fd5b634e487b7160e01b600052603260045260246000fd5b634e487b7160e01b600052601160045260246000fd5b600060018201610e0657610e06610dde565b5060010190565b8082028115828204841417610e2457610e24610dde565b92915050565b601f821115610e7457600081815260208120601f850160051c81016020861015610e515750805b601f850160051c820191505b81811015610e7057828155600101610e5d565b5050505b505050565b815167ffffffffffffffff811115610e9357610e93610bce565b610ea781610ea18454610d94565b84610e2a565b602080601f831160018114610edc5760008415610ec45750858301515b600019600386901b1c1916600185901b178555610e70565b600085815260208120601f198616915b82811015610f0b57888601518255948401946001909101908401610eec565b5085821015610f295787850151600019600388901b60f8161c191681555b5050505050600190811b01905550565b81810381811115610e2457610e24610dde565b80820180821115610e2457610e24610dde56fea2646970667358221220b8cc30c2fa2bf9cf556a7bf941677df47988b5d4d549e1ac7264012310b2b96064736f6c63430008120033",
  "immutableReferences": {},
  "source": "//SPDX-License-Identifier: MIT\r\n\r\npragma solidity ^0.8.0;\r\n\r\ncontract Donations {\r\n    // Donation struct\r\n    struct Donation {\r\n        address owner;\r\n        string title;\r\n        string story;\r\n        uint256 goal;\r\n        uint256 deadline;\r\n        uint256 collectedAmount;\r\n        string image;\r\n        address[] donators;\r\n        uint256[] donations;\r\n    }\r\n\r\n    uint256 internal numberOfDonations = 0;\r\n    mapping(uint256 => Donation) public donations; // key -> value\r\n\r\n    // Events\r\n    event Created(uint256 id);\r\n\r\n    // Functions\r\n    function getNumberOfDonations() public view returns (uint256) {\r\n        return numberOfDonations;\r\n    }\r\n\r\n    function createDonation(\r\n        address _owner,\r\n        string memory _title,\r\n        string memory _story,\r\n        uint256 _goal,\r\n        uint256 _deadline,\r\n        string memory _image\r\n    ) public returns (uint256) {\r\n        Donation storage donation = donations[numberOfDonations];\r\n\r\n        require(\r\n            _deadline >= block.timestamp * 1000,\r\n            \"The deadline must be in the future!\"\r\n        );\r\n\r\n        donation.owner = _owner;\r\n        donation.title = _title;\r\n        donation.story = _story;\r\n        donation.goal = _goal;\r\n        donation.deadline = _deadline;\r\n        donation.image = _image;\r\n\r\n        numberOfDonations++;\r\n        emit Created(numberOfDonations - 1);\r\n        return numberOfDonations - 1;\r\n    }\r\n\r\n    function donateToDonation(uint256 _id) public payable {\r\n        Donation storage donation = donations[_id];\r\n        uint256 amountSent = msg.value;\r\n\r\n        donation.donators.push(msg.sender);\r\n        donation.donations.push(amountSent);\r\n\r\n        (bool sent, ) = payable(donation.owner).call{value: amountSent}(\"\");\r\n\r\n        if (sent) {\r\n            donation.collectedAmount = donation.collectedAmount + amountSent;\r\n        }\r\n    }\r\n\r\n    function getDonators(uint256 _id)\r\n        public\r\n        view\r\n        returns (address[] memory, uint256[] memory)\r\n    {\r\n        return (donations[_id].donators, donations[_id].donations);\r\n    }\r\n\r\n    function getAllDonations() public view returns (Donation[] memory) {\r\n        // Create new array with specific size.\r\n        Donation[] memory allDonations = new Donation[](numberOfDonations);\r\n\r\n        for (uint256 index = 0; index < numberOfDonations; index++) {\r\n            allDonations[index] = donations[index];\r\n        }\r\n\r\n        return allDonations;\r\n    }\r\n}\r\n",
  "sourcePath": "D:\\WEB - 3\\CrowdFunding\\Code\\contracts\\Donations.sol",
  "compiler": {
    "name": "solc",
    "version": "0.8.18+commit.87f61d96.Emscripten.clang"
  },
  "schemaVersion": "3.4.11",
  "updatedAt": "2023-02-08T12:24:49.597Z",
  "networkType": "ethereum",
  "devdoc": {
    "kind": "dev",
    "methods": {},
    "version": 1
  },
  "userdoc": {
    "kind": "user",
    "methods": {},
    "version": 1
  }
}